{
  "_format": "hh-sol-artifact-1",
  "contractName": "MyNFT",
  "sourceName": "contracts/MyNFT.sol",
  "abi": [
    {
      "inputs": [],
      "stateMutability": "nonpayable",
      "type": "constructor"
    },
    {
      "anonymous": false,
      "inputs": [
        {
          "indexed": true,
          "internalType": "address",
          "name": "owner",
          "type": "address"
        },
        {
          "indexed": true,
          "internalType": "address",
          "name": "approved",
          "type": "address"
        },
        {
          "indexed": true,
          "internalType": "uint256",
          "name": "tokenId",
          "type": "uint256"
        }
      ],
      "name": "Approval",
      "type": "event"
    },
    {
      "anonymous": false,
      "inputs": [
        {
          "indexed": true,
          "internalType": "address",
          "name": "owner",
          "type": "address"
        },
        {
          "indexed": true,
          "internalType": "address",
          "name": "operator",
          "type": "address"
        },
        {
          "indexed": false,
          "internalType": "bool",
          "name": "approved",
          "type": "bool"
        }
      ],
      "name": "ApprovalForAll",
      "type": "event"
    },
    {
      "anonymous": false,
      "inputs": [
        {
          "indexed": true,
          "internalType": "address",
          "name": "from",
          "type": "address"
        },
        {
          "indexed": false,
          "internalType": "uint256",
          "name": "itemId",
          "type": "uint256"
        }
      ],
      "name": "NewNFTMinted",
      "type": "event"
    },
    {
      "anonymous": false,
      "inputs": [
        {
          "indexed": true,
          "internalType": "address",
          "name": "from",
          "type": "address"
        },
        {
          "indexed": true,
          "internalType": "address",
          "name": "to",
          "type": "address"
        },
        {
          "indexed": true,
          "internalType": "uint256",
          "name": "tokenId",
          "type": "uint256"
        }
      ],
      "name": "Transfer",
      "type": "event"
    },
    {
      "inputs": [
        {
          "internalType": "address",
          "name": "to",
          "type": "address"
        },
        {
          "internalType": "uint256",
          "name": "tokenId",
          "type": "uint256"
        }
      ],
      "name": "approve",
      "outputs": [],
      "stateMutability": "nonpayable",
      "type": "function"
    },
    {
      "inputs": [
        {
          "internalType": "address",
          "name": "owner",
          "type": "address"
        }
      ],
      "name": "balanceOf",
      "outputs": [
        {
          "internalType": "uint256",
          "name": "",
          "type": "uint256"
        }
      ],
      "stateMutability": "view",
      "type": "function"
    },
    {
      "inputs": [
        {
          "internalType": "uint256",
          "name": "tokenId",
          "type": "uint256"
        }
      ],
      "name": "getApproved",
      "outputs": [
        {
          "internalType": "address",
          "name": "",
          "type": "address"
        }
      ],
      "stateMutability": "view",
      "type": "function"
    },
    {
      "inputs": [
        {
          "internalType": "address",
          "name": "owner",
          "type": "address"
        },
        {
          "internalType": "address",
          "name": "operator",
          "type": "address"
        }
      ],
      "name": "isApprovedForAll",
      "outputs": [
        {
          "internalType": "bool",
          "name": "",
          "type": "bool"
        }
      ],
      "stateMutability": "view",
      "type": "function"
    },
    {
      "inputs": [
        {
          "internalType": "address",
          "name": "_to",
          "type": "address"
        }
      ],
      "name": "makeNFT",
      "outputs": [],
      "stateMutability": "nonpayable",
      "type": "function"
    },
    {
      "inputs": [],
      "name": "name",
      "outputs": [
        {
          "internalType": "string",
          "name": "",
          "type": "string"
        }
      ],
      "stateMutability": "view",
      "type": "function"
    },
    {
      "inputs": [
        {
          "internalType": "uint256",
          "name": "tokenId",
          "type": "uint256"
        }
      ],
      "name": "ownerOf",
      "outputs": [
        {
          "internalType": "address",
          "name": "",
          "type": "address"
        }
      ],
      "stateMutability": "view",
      "type": "function"
    },
    {
      "inputs": [
        {
          "internalType": "address",
          "name": "from",
          "type": "address"
        },
        {
          "internalType": "address",
          "name": "to",
          "type": "address"
        },
        {
          "internalType": "uint256",
          "name": "tokenId",
          "type": "uint256"
        }
      ],
      "name": "safeTransferFrom",
      "outputs": [],
      "stateMutability": "nonpayable",
      "type": "function"
    },
    {
      "inputs": [
        {
          "internalType": "address",
          "name": "from",
          "type": "address"
        },
        {
          "internalType": "address",
          "name": "to",
          "type": "address"
        },
        {
          "internalType": "uint256",
          "name": "tokenId",
          "type": "uint256"
        },
        {
          "internalType": "bytes",
          "name": "_data",
          "type": "bytes"
        }
      ],
      "name": "safeTransferFrom",
      "outputs": [],
      "stateMutability": "nonpayable",
      "type": "function"
    },
    {
      "inputs": [
        {
          "internalType": "address",
          "name": "operator",
          "type": "address"
        },
        {
          "internalType": "bool",
          "name": "approved",
          "type": "bool"
        }
      ],
      "name": "setApprovalForAll",
      "outputs": [],
      "stateMutability": "nonpayable",
      "type": "function"
    },
    {
      "inputs": [
        {
          "internalType": "bytes4",
          "name": "interfaceId",
          "type": "bytes4"
        }
      ],
      "name": "supportsInterface",
      "outputs": [
        {
          "internalType": "bool",
          "name": "",
          "type": "bool"
        }
      ],
      "stateMutability": "view",
      "type": "function"
    },
    {
      "inputs": [],
      "name": "symbol",
      "outputs": [
        {
          "internalType": "string",
          "name": "",
          "type": "string"
        }
      ],
      "stateMutability": "view",
      "type": "function"
    },
    {
      "inputs": [
        {
          "internalType": "uint256",
          "name": "tokenId",
          "type": "uint256"
        }
      ],
      "name": "tokenURI",
      "outputs": [
        {
          "internalType": "string",
          "name": "",
          "type": "string"
        }
      ],
      "stateMutability": "view",
      "type": "function"
    },
    {
      "inputs": [
        {
          "internalType": "address",
          "name": "_owner",
          "type": "address"
        }
      ],
      "name": "tokensOfOwner",
      "outputs": [
        {
          "internalType": "uint256[]",
          "name": "ownerTokens",
          "type": "uint256[]"
        }
      ],
      "stateMutability": "view",
      "type": "function"
    },
    {
      "inputs": [
        {
          "internalType": "address",
          "name": "from",
          "type": "address"
        },
        {
          "internalType": "address",
          "name": "to",
          "type": "address"
        },
        {
          "internalType": "uint256",
          "name": "tokenId",
          "type": "uint256"
        }
      ],
      "name": "transferFrom",
      "outputs": [],
      "stateMutability": "nonpayable",
      "type": "function"
    }
  ],
  "bytecode": "0x608060405260405180610160016040528061012f815260200162003b0161012f9139600990805190602001906200003892919062000204565b503480156200004657600080fd5b506040518060400160405280601181526020017f57656233526573736f75726365734e46540000000000000000000000000000008152506040518060400160405280600581526020017f57334e46540000000000000000000000000000000000000000000000000000008152508160009080519060200190620000cb92919062000204565b508060019080519060200190620000e492919062000204565b505050620001326040518060400160405280601c81526020017f4d794e465420436f6e747261637420726561647920746f20676f2021000000008152506200013860201b62000f1a1760201c565b620003e1565b620001d8816040516024016200014f9190620002f5565b6040516020818303038152906040527f41304fac000000000000000000000000000000000000000000000000000000007bffffffffffffffffffffffffffffffffffffffffffffffffffffffff19166020820180517bffffffffffffffffffffffffffffffffffffffffffffffffffffffff8381831617835250505050620001db60201b60201c565b50565b60008151905060006a636f6e736f6c652e6c6f679050602083016000808483855afa5050505050565b82805462000212906200036b565b90600052602060002090601f01602090048101928262000236576000855562000282565b82601f106200025157805160ff191683800117855562000282565b8280016001018555821562000282579182015b828111156200028157825182559160200191906001019062000264565b5b50905062000291919062000295565b5090565b5b80821115620002b057600081600090555060010162000296565b5090565b6000620002c18262000319565b620002cd818562000324565b9350620002df81856020860162000335565b620002ea81620003d0565b840191505092915050565b60006020820190508181036000830152620003118184620002b4565b905092915050565b600081519050919050565b600082825260208201905092915050565b60005b838110156200035557808201518184015260208101905062000338565b8381111562000365576000848401525b50505050565b600060028204905060018216806200038457607f821691505b602082108114156200039b576200039a620003a1565b5b50919050565b7f4e487b7100000000000000000000000000000000000000000000000000000000600052602260045260246000fd5b6000601f19601f8301169050919050565b61371080620003f16000396000f3fe608060405234801561001057600080fd5b50600436106100f55760003560e01c80636352211e11610097578063a22cb46511610066578063a22cb46514610296578063b88d4fde146102b2578063c87b56dd146102ce578063e985e9c5146102fe576100f5565b80636352211e146101e857806370a08231146102185780638462151c1461024857806395d89b4114610278576100f5565b8063095ea7b3116100d3578063095ea7b31461017857806323b872dd1461019457806342842e0e146101b0578063541601a1146101cc576100f5565b806301ffc9a7146100fa57806306fdde031461012a578063081812fc14610148575b600080fd5b610114600480360381019061010f9190612313565b61032e565b604051610121919061296a565b60405180910390f35b610132610410565b60405161013f9190612985565b60405180910390f35b610162600480360381019061015d9190612365565b6104a2565b60405161016f91906128e1565b60405180910390f35b610192600480360381019061018d91906122d7565b610527565b005b6101ae60048036038101906101a991906121d1565b61063f565b005b6101ca60048036038101906101c591906121d1565b61069f565b005b6101e660048036038101906101e1919061216c565b6106bf565b005b61020260048036038101906101fd9190612365565b6108b7565b60405161020f91906128e1565b60405180910390f35b610232600480360381019061022d919061216c565b610969565b60405161023f9190612be5565b60405180910390f35b610262600480360381019061025d919061216c565b610a21565b60405161026f9190612948565b60405180910390f35b610280610c2a565b60405161028d9190612985565b60405180910390f35b6102b060048036038101906102ab919061229b565b610cbc565b005b6102cc60048036038101906102c79190612220565b610cd2565b005b6102e860048036038101906102e39190612365565b610d34565b6040516102f59190612985565b60405180910390f35b61031860048036038101906103139190612195565b610e86565b604051610325919061296a565b60405180910390f35b60007f80ac58cd000000000000000000000000000000000000000000000000000000007bffffffffffffffffffffffffffffffffffffffffffffffffffffffff1916827bffffffffffffffffffffffffffffffffffffffffffffffffffffffff191614806103f957507f5b5e139f000000000000000000000000000000000000000000000000000000007bffffffffffffffffffffffffffffffffffffffffffffffffffffffff1916827bffffffffffffffffffffffffffffffffffffffffffffffffffffffff1916145b80610409575061040882610fb3565b5b9050919050565b60606000805461041f90612eb2565b80601f016020809104026020016040519081016040528092919081815260200182805461044b90612eb2565b80156104985780601f1061046d57610100808354040283529160200191610498565b820191906000526020600020905b81548152906001019060200180831161047b57829003601f168201915b5050505050905090565b60006104ad8261101d565b6104ec576040517f08c379a00000000000000000000000000000000000000000000000000000000081526004016104e390612b65565b60405180910390fd5b6004600083815260200190815260200160002060009054906101000a900473ffffffffffffffffffffffffffffffffffffffff169050919050565b6000610532826108b7565b90508073ffffffffffffffffffffffffffffffffffffffff168373ffffffffffffffffffffffffffffffffffffffff1614156105a3576040517f08c379a000000000000000000000000000000000000000000000000000000000815260040161059a90612ba5565b60405180910390fd5b8073ffffffffffffffffffffffffffffffffffffffff166105c2611089565b73ffffffffffffffffffffffffffffffffffffffff1614806105f157506105f0816105eb611089565b610e86565b5b610630576040517f08c379a000000000000000000000000000000000000000000000000000000000815260040161062790612aa5565b60405180910390fd5b61063a8383611091565b505050565b61065061064a611089565b8261114a565b61068f576040517f08c379a000000000000000000000000000000000000000000000000000000000815260040161068690612bc5565b60405180910390fd5b61069a838383611228565b505050565b6106ba83838360405180602001604052806000815250610cd2565b505050565b60006106cb600761148f565b9050600060096040516020016106e19190612865565b604051602081830303815290604052905060006107246107008361149d565b60405160200161071091906128b4565b60405160208183030381529060405261149d565b90506000816040516020016107399190612892565b60405160208183030381529060405290506107886040518060400160405280601581526020017f0a2d2d2d2d2d2d2d2d2d2d2d2d2d2d2d2d2d2d2d2d0000000000000000000000815250610f1a565b61079181610f1a565b6107cf6040518060400160405280601581526020017f2d2d2d2d2d2d2d2d2d2d2d2d2d2d2d2d2d2d2d2d0a0000000000000000000000815250610f1a565b6107d9858561165b565b8473ffffffffffffffffffffffffffffffffffffffff167f1c05098ed1ff38e6238d2b1b04b2c7977d4c94ce651bda6473f9dba8dbf01da08560405161081f9190612be5565b60405180910390a26108318482611679565b846008600086815260200190815260200160002060006101000a81548173ffffffffffffffffffffffffffffffffffffffff021916908373ffffffffffffffffffffffffffffffffffffffff16021790555061088d60076116ed565b6108b0604051806060016040528060258152602001613676602591398587611703565b5050505050565b6000806002600084815260200190815260200160002060009054906101000a900473ffffffffffffffffffffffffffffffffffffffff169050600073ffffffffffffffffffffffffffffffffffffffff168173ffffffffffffffffffffffffffffffffffffffff161415610960576040517f08c379a000000000000000000000000000000000000000000000000000000000815260040161095790612ae5565b60405180910390fd5b80915050919050565b60008073ffffffffffffffffffffffffffffffffffffffff168273ffffffffffffffffffffffffffffffffffffffff1614156109da576040517f08c379a00000000000000000000000000000000000000000000000000000000081526004016109d190612ac5565b60405180910390fd5b600360008373ffffffffffffffffffffffffffffffffffffffff1673ffffffffffffffffffffffffffffffffffffffff168152602001908152602001600020549050919050565b60606000610a2e83610969565b90506000811415610ab157600067ffffffffffffffff811115610a7a577f4e487b7100000000000000000000000000000000000000000000000000000000600052604160045260246000fd5b604051908082528060200260200182016040528015610aa85781602001602082028036833780820191505090505b50915050610c25565b60008167ffffffffffffffff811115610af3577f4e487b7100000000000000000000000000000000000000000000000000000000600052604160045260246000fd5b604051908082528060200260200182016040528015610b215781602001602082028036833780820191505090505b50905060006001610b32600761148f565b610b3c9190612ce7565b9050600080600190505b828111610c1c578673ffffffffffffffffffffffffffffffffffffffff166008600083815260200190815260200160002060009054906101000a900473ffffffffffffffffffffffffffffffffffffffff1673ffffffffffffffffffffffffffffffffffffffff161415610c095780848381518110610bee577f4e487b7100000000000000000000000000000000000000000000000000000000600052603260045260246000fd5b6020026020010181815250508180610c0590612f15565b9250505b8080610c1490612f15565b915050610b46565b83955050505050505b919050565b606060018054610c3990612eb2565b80601f0160208091040260200160405190810160405280929190818152602001828054610c6590612eb2565b8015610cb25780601f10610c8757610100808354040283529160200191610cb2565b820191906000526020600020905b815481529060010190602001808311610c9557829003601f168201915b5050505050905090565b610cce610cc7611089565b83836117a2565b5050565b610ce3610cdd611089565b8361114a565b610d22576040517f08c379a0000000000000000000000000000000000000000000000000000000008152600401610d1990612bc5565b60405180910390fd5b610d2e8484848461190f565b50505050565b6060610d3f8261101d565b610d7e576040517f08c379a0000000000000000000000000000000000000000000000000000000008152600401610d7590612b45565b60405180910390fd5b6000600660008481526020019081526020016000208054610d9e90612eb2565b80601f0160208091040260200160405190810160405280929190818152602001828054610dca90612eb2565b8015610e175780601f10610dec57610100808354040283529160200191610e17565b820191906000526020600020905b815481529060010190602001808311610dfa57829003601f168201915b505050505090506000610e2861196b565b9050600081511415610e3e578192505050610e81565b600082511115610e73578082604051602001610e5b929190612841565b60405160208183030381529060405292505050610e81565b610e7c84611982565b925050505b919050565b6000600560008473ffffffffffffffffffffffffffffffffffffffff1673ffffffffffffffffffffffffffffffffffffffff16815260200190815260200160002060008373ffffffffffffffffffffffffffffffffffffffff1673ffffffffffffffffffffffffffffffffffffffff16815260200190815260200160002060009054906101000a900460ff16905092915050565b610fb081604051602401610f2e9190612985565b6040516020818303038152906040527f41304fac000000000000000000000000000000000000000000000000000000007bffffffffffffffffffffffffffffffffffffffffffffffffffffffff19166020820180517bffffffffffffffffffffffffffffffffffffffffffffffffffffffff8381831617835250505050611a29565b50565b60007f01ffc9a7000000000000000000000000000000000000000000000000000000007bffffffffffffffffffffffffffffffffffffffffffffffffffffffff1916827bffffffffffffffffffffffffffffffffffffffffffffffffffffffff1916149050919050565b60008073ffffffffffffffffffffffffffffffffffffffff166002600084815260200190815260200160002060009054906101000a900473ffffffffffffffffffffffffffffffffffffffff1673ffffffffffffffffffffffffffffffffffffffff1614159050919050565b600033905090565b816004600083815260200190815260200160002060006101000a81548173ffffffffffffffffffffffffffffffffffffffff021916908373ffffffffffffffffffffffffffffffffffffffff160217905550808273ffffffffffffffffffffffffffffffffffffffff16611104836108b7565b73ffffffffffffffffffffffffffffffffffffffff167f8c5be1e5ebec7d5bd14f71427d1e84f3dd0314c0f7b2291e5b200ac8c7c3b92560405160405180910390a45050565b60006111558261101d565b611194576040517f08c379a000000000000000000000000000000000000000000000000000000000815260040161118b90612a85565b60405180910390fd5b600061119f836108b7565b90508073ffffffffffffffffffffffffffffffffffffffff168473ffffffffffffffffffffffffffffffffffffffff16148061120e57508373ffffffffffffffffffffffffffffffffffffffff166111f6846104a2565b73ffffffffffffffffffffffffffffffffffffffff16145b8061121f575061121e8185610e86565b5b91505092915050565b8273ffffffffffffffffffffffffffffffffffffffff16611248826108b7565b73ffffffffffffffffffffffffffffffffffffffff161461129e576040517f08c379a000000000000000000000000000000000000000000000000000000000815260040161129590612a05565b60405180910390fd5b600073ffffffffffffffffffffffffffffffffffffffff168273ffffffffffffffffffffffffffffffffffffffff16141561130e576040517f08c379a000000000000000000000000000000000000000000000000000000000815260040161130590612a45565b60405180910390fd5b611319838383611a52565b611324600082611091565b6001600360008573ffffffffffffffffffffffffffffffffffffffff1673ffffffffffffffffffffffffffffffffffffffff16815260200190815260200160002060008282546113749190612dc8565b925050819055506001600360008473ffffffffffffffffffffffffffffffffffffffff1673ffffffffffffffffffffffffffffffffffffffff16815260200190815260200160002060008282546113cb9190612ce7565b92505081905550816002600083815260200190815260200160002060006101000a81548173ffffffffffffffffffffffffffffffffffffffff021916908373ffffffffffffffffffffffffffffffffffffffff160217905550808273ffffffffffffffffffffffffffffffffffffffff168473ffffffffffffffffffffffffffffffffffffffff167fddf252ad1be2c89b69c2b068fc378daa952ba7f163c4a11628f55a4df523b3ef60405160405180910390a461148a838383611a57565b505050565b600081600001549050919050565b606060008251905060008114156114c65760405180602001604052806000815250915050611656565b600060036002836114d79190612ce7565b6114e19190612d3d565b60046114ed9190612d6e565b905060006020826114fe9190612ce7565b67ffffffffffffffff81111561153d577f4e487b7100000000000000000000000000000000000000000000000000000000600052604160045260246000fd5b6040519080825280601f01601f19166020018201604052801561156f5781602001600182028036833780820191505090505b509050600060405180606001604052806040815260200161369b604091399050600181016020830160005b868110156116135760038101905062ffffff818a015116603f8160121c168401518060081b905060ff603f83600c1c1686015116810190508060081b905060ff603f8360061c1686015116810190508060081b905060ff603f831686015116810190508060e01b9050808452600484019350505061159a565b50600386066001811461162d576002811461163d57611648565b613d3d60f01b6002830352611648565b603d60f81b60018303525b508484525050819450505050505b919050565b611675828260405180602001604052806000815250611a5c565b5050565b6116828261101d565b6116c1576040517f08c379a00000000000000000000000000000000000000000000000000000000081526004016116b890612b05565b60405180910390fd5b806006600084815260200190815260200160002090805190602001906116e8929190611ff8565b505050565b6001816000016000828254019250508190555050565b61179d83838360405160240161171b939291906129a7565b6040516020818303038152906040527fe3849f79000000000000000000000000000000000000000000000000000000007bffffffffffffffffffffffffffffffffffffffffffffffffffffffff19166020820180517bffffffffffffffffffffffffffffffffffffffffffffffffffffffff8381831617835250505050611a29565b505050565b8173ffffffffffffffffffffffffffffffffffffffff168373ffffffffffffffffffffffffffffffffffffffff161415611811576040517f08c379a000000000000000000000000000000000000000000000000000000000815260040161180890612a65565b60405180910390fd5b80600560008573ffffffffffffffffffffffffffffffffffffffff1673ffffffffffffffffffffffffffffffffffffffff16815260200190815260200160002060008473ffffffffffffffffffffffffffffffffffffffff1673ffffffffffffffffffffffffffffffffffffffff16815260200190815260200160002060006101000a81548160ff0219169083151502179055508173ffffffffffffffffffffffffffffffffffffffff168373ffffffffffffffffffffffffffffffffffffffff167f17307eab39ab6107e8899845ad3d59bd9653f200f220920489ca2b5937696c3183604051611902919061296a565b60405180910390a3505050565b61191a848484611228565b61192684848484611ab7565b611965576040517f08c379a000000000000000000000000000000000000000000000000000000000815260040161195c906129e5565b60405180910390fd5b50505050565b606060405180602001604052806000815250905090565b606061198d8261101d565b6119cc576040517f08c379a00000000000000000000000000000000000000000000000000000000081526004016119c390612b85565b60405180910390fd5b60006119d661196b565b905060008151116119f65760405180602001604052806000815250611a21565b80611a0084611c4e565b604051602001611a11929190612841565b6040516020818303038152906040525b915050919050565b60008151905060006a636f6e736f6c652e6c6f679050602083016000808483855afa5050505050565b505050565b505050565b611a668383611dfb565b611a736000848484611ab7565b611ab2576040517f08c379a0000000000000000000000000000000000000000000000000000000008152600401611aa9906129e5565b60405180910390fd5b505050565b6000611ad88473ffffffffffffffffffffffffffffffffffffffff16611fd5565b15611c41578373ffffffffffffffffffffffffffffffffffffffff1663150b7a02611b01611089565b8786866040518563ffffffff1660e01b8152600401611b2394939291906128fc565b602060405180830381600087803b158015611b3d57600080fd5b505af1925050508015611b6e57506040513d601f19601f82011682018060405250810190611b6b919061233c565b60015b611bf1573d8060008114611b9e576040519150601f19603f3d011682016040523d82523d6000602084013e611ba3565b606091505b50600081511415611be9576040517f08c379a0000000000000000000000000000000000000000000000000000000008152600401611be0906129e5565b60405180910390fd5b805181602001fd5b63150b7a0260e01b7bffffffffffffffffffffffffffffffffffffffffffffffffffffffff1916817bffffffffffffffffffffffffffffffffffffffffffffffffffffffff191614915050611c46565b600190505b949350505050565b60606000821415611c96576040518060400160405280600181526020017f30000000000000000000000000000000000000000000000000000000000000008152509050611df6565b600082905060005b60008214611cc8578080611cb190612f15565b915050600a82611cc19190612d3d565b9150611c9e565b60008167ffffffffffffffff811115611d0a577f4e487b7100000000000000000000000000000000000000000000000000000000600052604160045260246000fd5b6040519080825280601f01601f191660200182016040528015611d3c5781602001600182028036833780820191505090505b5090505b60008514611def57600182611d559190612dc8565b9150600a85611d649190612f5e565b6030611d709190612ce7565b60f81b818381518110611dac577f4e487b7100000000000000000000000000000000000000000000000000000000600052603260045260246000fd5b60200101907effffffffffffffffffffffffffffffffffffffffffffffffffffffffffffff1916908160001a905350600a85611de89190612d3d565b9450611d40565b8093505050505b919050565b600073ffffffffffffffffffffffffffffffffffffffff168273ffffffffffffffffffffffffffffffffffffffff161415611e6b576040517f08c379a0000000000000000000000000000000000000000000000000000000008152600401611e6290612b25565b60405180910390fd5b611e748161101d565b15611eb4576040517f08c379a0000000000000000000000000000000000000000000000000000000008152600401611eab90612a25565b60405180910390fd5b611ec060008383611a52565b6001600360008473ffffffffffffffffffffffffffffffffffffffff1673ffffffffffffffffffffffffffffffffffffffff1681526020019081526020016000206000828254611f109190612ce7565b92505081905550816002600083815260200190815260200160002060006101000a81548173ffffffffffffffffffffffffffffffffffffffff021916908373ffffffffffffffffffffffffffffffffffffffff160217905550808273ffffffffffffffffffffffffffffffffffffffff16600073ffffffffffffffffffffffffffffffffffffffff167fddf252ad1be2c89b69c2b068fc378daa952ba7f163c4a11628f55a4df523b3ef60405160405180910390a4611fd160008383611a57565b5050565b6000808273ffffffffffffffffffffffffffffffffffffffff163b119050919050565b82805461200490612eb2565b90600052602060002090601f016020900481019282612026576000855561206d565b82601f1061203f57805160ff191683800117855561206d565b8280016001018555821561206d579182015b8281111561206c578251825591602001919060010190612051565b5b50905061207a919061207e565b5090565b5b8082111561209757600081600090555060010161207f565b5090565b60006120ae6120a984612c25565b612c00565b9050828152602081018484840111156120c657600080fd5b6120d1848285612e70565b509392505050565b6000813590506120e881613619565b92915050565b6000813590506120fd81613630565b92915050565b60008135905061211281613647565b92915050565b60008151905061212781613647565b92915050565b600082601f83011261213e57600080fd5b813561214e84826020860161209b565b91505092915050565b6000813590506121668161365e565b92915050565b60006020828403121561217e57600080fd5b600061218c848285016120d9565b91505092915050565b600080604083850312156121a857600080fd5b60006121b6858286016120d9565b92505060206121c7858286016120d9565b9150509250929050565b6000806000606084860312156121e657600080fd5b60006121f4868287016120d9565b9350506020612205868287016120d9565b925050604061221686828701612157565b9150509250925092565b6000806000806080858703121561223657600080fd5b6000612244878288016120d9565b9450506020612255878288016120d9565b935050604061226687828801612157565b925050606085013567ffffffffffffffff81111561228357600080fd5b61228f8782880161212d565b91505092959194509250565b600080604083850312156122ae57600080fd5b60006122bc858286016120d9565b92505060206122cd858286016120ee565b9150509250929050565b600080604083850312156122ea57600080fd5b60006122f8858286016120d9565b925050602061230985828601612157565b9150509250929050565b60006020828403121561232557600080fd5b600061233384828501612103565b91505092915050565b60006020828403121561234e57600080fd5b600061235c84828501612118565b91505092915050565b60006020828403121561237757600080fd5b600061238584828501612157565b91505092915050565b600061239a8383612823565b60208301905092915050565b6123af81612dfc565b82525050565b60006123c082612c7b565b6123ca8185612ca9565b93506123d583612c56565b8060005b838110156124065781516123ed888261238e565b97506123f883612c9c565b9250506001810190506123d9565b5085935050505092915050565b61241c81612e0e565b82525050565b600061242d82612c86565b6124378185612cba565b9350612447818560208601612e7f565b6124508161304b565b840191505092915050565b600061246682612c91565b6124708185612ccb565b9350612480818560208601612e7f565b6124898161304b565b840191505092915050565b600061249f82612c91565b6124a98185612cdc565b93506124b9818560208601612e7f565b80840191505092915050565b600081546124d281612eb2565b6124dc8186612cdc565b945060018216600081146124f757600181146125085761253b565b60ff1983168652818601935061253b565b61251185612c66565b60005b8381101561253357815481890152600182019150602081019050612514565b838801955050505b50505092915050565b6000612551603283612ccb565b915061255c8261305c565b604082019050919050565b6000612574602583612ccb565b915061257f826130ab565b604082019050919050565b6000612597601c83612ccb565b91506125a2826130fa565b602082019050919050565b60006125ba602483612ccb565b91506125c582613123565b604082019050919050565b60006125dd601983612ccb565b91506125e882613172565b602082019050919050565b6000612600602c83612ccb565b915061260b8261319b565b604082019050919050565b6000612623600d83612cdc565b915061262e826131ea565b600d82019050919050565b6000612646603883612ccb565b915061265182613213565b604082019050919050565b6000612669602a83612ccb565b915061267482613262565b604082019050919050565b600061268c602983612ccb565b9150612697826132b1565b604082019050919050565b60006126af602e83612ccb565b91506126ba82613300565b604082019050919050565b60006126d2600283612cdc565b91506126dd8261334f565b600282019050919050565b60006126f5602083612ccb565b915061270082613378565b602082019050919050565b6000612718603183612ccb565b9150612723826133a1565b604082019050919050565b600061273b602c83612ccb565b9150612746826133f0565b604082019050919050565b600061275e601383612cdc565b91506127698261343f565b601382019050919050565b6000612781602f83612ccb565b915061278c82613468565b604082019050919050565b60006127a4602183612ccb565b91506127af826134b7565b604082019050919050565b60006127c7601d83612cdc565b91506127d282613506565b601d82019050919050565b60006127ea607c83612cdc565b91506127f58261352f565b607c82019050919050565b600061280d603183612ccb565b9150612818826135ca565b604082019050919050565b61282c81612e66565b82525050565b61283b81612e66565b82525050565b600061284d8285612494565b91506128598284612494565b91508190509392505050565b600061287182846124c5565b915061287c82612751565b915061288782612616565b915081905092915050565b600061289d826127ba565b91506128a98284612494565b915081905092915050565b60006128bf826127dd565b91506128cb8284612494565b91506128d6826126c5565b915081905092915050565b60006020820190506128f660008301846123a6565b92915050565b600060808201905061291160008301876123a6565b61291e60208301866123a6565b61292b6040830185612832565b818103606083015261293d8184612422565b905095945050505050565b6000602082019050818103600083015261296281846123b5565b905092915050565b600060208201905061297f6000830184612413565b92915050565b6000602082019050818103600083015261299f818461245b565b905092915050565b600060608201905081810360008301526129c1818661245b565b90506129d06020830185612832565b6129dd60408301846123a6565b949350505050565b600060208201905081810360008301526129fe81612544565b9050919050565b60006020820190508181036000830152612a1e81612567565b9050919050565b60006020820190508181036000830152612a3e8161258a565b9050919050565b60006020820190508181036000830152612a5e816125ad565b9050919050565b60006020820190508181036000830152612a7e816125d0565b9050919050565b60006020820190508181036000830152612a9e816125f3565b9050919050565b60006020820190508181036000830152612abe81612639565b9050919050565b60006020820190508181036000830152612ade8161265c565b9050919050565b60006020820190508181036000830152612afe8161267f565b9050919050565b60006020820190508181036000830152612b1e816126a2565b9050919050565b60006020820190508181036000830152612b3e816126e8565b9050919050565b60006020820190508181036000830152612b5e8161270b565b9050919050565b60006020820190508181036000830152612b7e8161272e565b9050919050565b60006020820190508181036000830152612b9e81612774565b9050919050565b60006020820190508181036000830152612bbe81612797565b9050919050565b60006020820190508181036000830152612bde81612800565b9050919050565b6000602082019050612bfa6000830184612832565b92915050565b6000612c0a612c1b565b9050612c168282612ee4565b919050565b6000604051905090565b600067ffffffffffffffff821115612c4057612c3f61301c565b5b612c498261304b565b9050602081019050919050565b6000819050602082019050919050565b60008190508160005260206000209050919050565b600081519050919050565b600081519050919050565b600081519050919050565b6000602082019050919050565b600082825260208201905092915050565b600082825260208201905092915050565b600082825260208201905092915050565b600081905092915050565b6000612cf282612e66565b9150612cfd83612e66565b9250827fffffffffffffffffffffffffffffffffffffffffffffffffffffffffffffffff03821115612d3257612d31612f8f565b5b828201905092915050565b6000612d4882612e66565b9150612d5383612e66565b925082612d6357612d62612fbe565b5b828204905092915050565b6000612d7982612e66565b9150612d8483612e66565b9250817fffffffffffffffffffffffffffffffffffffffffffffffffffffffffffffffff0483118215151615612dbd57612dbc612f8f565b5b828202905092915050565b6000612dd382612e66565b9150612dde83612e66565b925082821015612df157612df0612f8f565b5b828203905092915050565b6000612e0782612e46565b9050919050565b60008115159050919050565b60007fffffffff0000000000000000000000000000000000000000000000000000000082169050919050565b600073ffffffffffffffffffffffffffffffffffffffff82169050919050565b6000819050919050565b82818337600083830152505050565b60005b83811015612e9d578082015181840152602081019050612e82565b83811115612eac576000848401525b50505050565b60006002820490506001821680612eca57607f821691505b60208210811415612ede57612edd612fed565b5b50919050565b612eed8261304b565b810181811067ffffffffffffffff82111715612f0c57612f0b61301c565b5b80604052505050565b6000612f2082612e66565b91507fffffffffffffffffffffffffffffffffffffffffffffffffffffffffffffffff821415612f5357612f52612f8f565b5b600182019050919050565b6000612f6982612e66565b9150612f7483612e66565b925082612f8457612f83612fbe565b5b828206905092915050565b7f4e487b7100000000000000000000000000000000000000000000000000000000600052601160045260246000fd5b7f4e487b7100000000000000000000000000000000000000000000000000000000600052601260045260246000fd5b7f4e487b7100000000000000000000000000000000000000000000000000000000600052602260045260246000fd5b7f4e487b7100000000000000000000000000000000000000000000000000000000600052604160045260246000fd5b6000601f19601f8301169050919050565b7f4552433732313a207472616e7366657220746f206e6f6e20455243373231526560008201527f63656976657220696d706c656d656e7465720000000000000000000000000000602082015250565b7f4552433732313a207472616e736665722066726f6d20696e636f72726563742060008201527f6f776e6572000000000000000000000000000000000000000000000000000000602082015250565b7f4552433732313a20746f6b656e20616c7265616479206d696e74656400000000600082015250565b7f4552433732313a207472616e7366657220746f20746865207a65726f2061646460008201527f7265737300000000000000000000000000000000000000000000000000000000602082015250565b7f4552433732313a20617070726f766520746f2063616c6c657200000000000000600082015250565b7f4552433732313a206f70657261746f7220717565727920666f72206e6f6e657860008201527f697374656e7420746f6b656e0000000000000000000000000000000000000000602082015250565b7f3c2f746578743e3c2f7376673e00000000000000000000000000000000000000600082015250565b7f4552433732313a20617070726f76652063616c6c6572206973206e6f74206f7760008201527f6e6572206e6f7220617070726f76656420666f7220616c6c0000000000000000602082015250565b7f4552433732313a2062616c616e636520717565727920666f7220746865207a6560008201527f726f206164647265737300000000000000000000000000000000000000000000602082015250565b7f4552433732313a206f776e657220717565727920666f72206e6f6e657869737460008201527f656e7420746f6b656e0000000000000000000000000000000000000000000000602082015250565b7f45524337323155524953746f726167653a2055524920736574206f66206e6f6e60008201527f6578697374656e7420746f6b656e000000000000000000000000000000000000602082015250565b7f227d000000000000000000000000000000000000000000000000000000000000600082015250565b7f4552433732313a206d696e7420746f20746865207a65726f2061646472657373600082015250565b7f45524337323155524953746f726167653a2055524920717565727920666f722060008201527f6e6f6e6578697374656e7420746f6b656e000000000000000000000000000000602082015250565b7f4552433732313a20617070726f76656420717565727920666f72206e6f6e657860008201527f697374656e7420746f6b656e0000000000000000000000000000000000000000602082015250565b7f4163746976652075736572204d6564616c202100000000000000000000000000600082015250565b7f4552433732314d657461646174613a2055524920717565727920666f72206e6f60008201527f6e6578697374656e7420746f6b656e0000000000000000000000000000000000602082015250565b7f4552433732313a20617070726f76616c20746f2063757272656e74206f776e6560008201527f7200000000000000000000000000000000000000000000000000000000000000602082015250565b7f646174613a6170706c69636174696f6e2f6a736f6e3b6261736536342c000000600082015250565b7f7b226e616d65223a20224163746976652075736572204d6564616c2021222c2060008201527f226465736372697074696f6e223a20225765623320526573736f75726365732060208201527f4e465420666f72206163746976652075736572732e222c2022696d616765223a60408201527f2022646174613a696d6167652f7376672b786d6c3b6261736536342c00000000606082015250565b7f4552433732313a207472616e736665722063616c6c6572206973206e6f74206f60008201527f776e6572206e6f7220617070726f766564000000000000000000000000000000602082015250565b61362281612dfc565b811461362d57600080fd5b50565b61363981612e0e565b811461364457600080fd5b50565b61365081612e1a565b811461365b57600080fd5b50565b61366781612e66565b811461367257600080fd5b5056fe416e204e465420772f20494420257320686173206265656e206d696e74656420746f2025734142434445464748494a4b4c4d4e4f505152535455565758595a6162636465666768696a6b6c6d6e6f707172737475767778797a303132333435363738392b2fa264697066735822122068166b510c28d6a325b5f2ec743670b8f561fd0d7834f207fd60e025581c69ed64736f6c634300080400333c73766720786d6c6e733d27687474703a2f2f7777772e77332e6f72672f323030302f73766727207072657365727665417370656374526174696f3d27784d696e594d696e206d656574272076696577426f783d273020302033353020333530273e3c7374796c653e2e62617365207b2066696c6c3a2077686974653b20666f6e742d66616d696c793a2073657269663b20666f6e742d73697a653a20323470783b207d3c2f7374796c653e3c726563742077696474683d273130302527206865696768743d2731303025272066696c6c3d27626c61636b27202f3e3c7465787420783d273530252720793d273530252720636c6173733d27626173652720646f6d696e616e742d626173656c696e653d276d6964646c652720746578742d616e63686f723d276d6964646c65273e",
  "linkReferences": {},
  "deployedLinkReferences": {}
}