{
  "_format": "hh-sol-artifact-1",
  "contractName": "MyToken",
  "sourceName": "contracts/MyToken.sol",
  "abi": [
    {
      "inputs": [
        {
          "internalType": "uint256",
          "name": "initialSupply",
          "type": "uint256"
        }
      ],
      "stateMutability": "nonpayable",
      "type": "constructor"
    },
    {
      "anonymous": false,
      "inputs": [
        {
          "indexed": true,
          "internalType": "address",
          "name": "owner",
          "type": "address"
        },
        {
          "indexed": true,
          "internalType": "address",
          "name": "spender",
          "type": "address"
        },
        {
          "indexed": false,
          "internalType": "uint256",
          "name": "value",
          "type": "uint256"
        }
      ],
      "name": "Approval",
      "type": "event"
    },
    {
      "anonymous": false,
      "inputs": [
        {
          "indexed": true,
          "internalType": "address",
          "name": "from",
          "type": "address"
        },
        {
          "indexed": true,
          "internalType": "address",
          "name": "to",
          "type": "address"
        },
        {
          "indexed": false,
          "internalType": "uint256",
          "name": "value",
          "type": "uint256"
        }
      ],
      "name": "Transfer",
      "type": "event"
    },
    {
      "inputs": [
        {
          "internalType": "address",
          "name": "owner",
          "type": "address"
        },
        {
          "internalType": "address",
          "name": "spender",
          "type": "address"
        }
      ],
      "name": "allowance",
      "outputs": [
        {
          "internalType": "uint256",
          "name": "",
          "type": "uint256"
        }
      ],
      "stateMutability": "view",
      "type": "function"
    },
    {
      "inputs": [
        {
          "internalType": "address",
          "name": "spender",
          "type": "address"
        },
        {
          "internalType": "uint256",
          "name": "amount",
          "type": "uint256"
        }
      ],
      "name": "approve",
      "outputs": [
        {
          "internalType": "bool",
          "name": "",
          "type": "bool"
        }
      ],
      "stateMutability": "nonpayable",
      "type": "function"
    },
    {
      "inputs": [
        {
          "internalType": "address",
          "name": "account",
          "type": "address"
        }
      ],
      "name": "balanceOf",
      "outputs": [
        {
          "internalType": "uint256",
          "name": "",
          "type": "uint256"
        }
      ],
      "stateMutability": "view",
      "type": "function"
    },
    {
      "inputs": [],
      "name": "decimals",
      "outputs": [
        {
          "internalType": "uint8",
          "name": "",
          "type": "uint8"
        }
      ],
      "stateMutability": "view",
      "type": "function"
    },
    {
      "inputs": [
        {
          "internalType": "address",
          "name": "spender",
          "type": "address"
        },
        {
          "internalType": "uint256",
          "name": "subtractedValue",
          "type": "uint256"
        }
      ],
      "name": "decreaseAllowance",
      "outputs": [
        {
          "internalType": "bool",
          "name": "",
          "type": "bool"
        }
      ],
      "stateMutability": "nonpayable",
      "type": "function"
    },
    {
      "inputs": [
        {
          "internalType": "address",
          "name": "spender",
          "type": "address"
        },
        {
          "internalType": "uint256",
          "name": "addedValue",
          "type": "uint256"
        }
      ],
      "name": "increaseAllowance",
      "outputs": [
        {
          "internalType": "bool",
          "name": "",
          "type": "bool"
        }
      ],
      "stateMutability": "nonpayable",
      "type": "function"
    },
    {
      "inputs": [],
      "name": "name",
      "outputs": [
        {
          "internalType": "string",
          "name": "",
          "type": "string"
        }
      ],
      "stateMutability": "view",
      "type": "function"
    },
    {
      "inputs": [
        {
          "internalType": "address",
          "name": "_userToReward",
          "type": "address"
        },
        {
          "internalType": "uint256",
          "name": "_amount",
          "type": "uint256"
        }
      ],
      "name": "rewardUser",
      "outputs": [],
      "stateMutability": "nonpayable",
      "type": "function"
    },
    {
      "inputs": [],
      "name": "symbol",
      "outputs": [
        {
          "internalType": "string",
          "name": "",
          "type": "string"
        }
      ],
      "stateMutability": "view",
      "type": "function"
    },
    {
      "inputs": [],
      "name": "totalSupply",
      "outputs": [
        {
          "internalType": "uint256",
          "name": "",
          "type": "uint256"
        }
      ],
      "stateMutability": "view",
      "type": "function"
    },
    {
      "inputs": [
        {
          "internalType": "address",
          "name": "to",
          "type": "address"
        },
        {
          "internalType": "uint256",
          "name": "amount",
          "type": "uint256"
        }
      ],
      "name": "transfer",
      "outputs": [
        {
          "internalType": "bool",
          "name": "",
          "type": "bool"
        }
      ],
      "stateMutability": "nonpayable",
      "type": "function"
    },
    {
      "inputs": [
        {
          "internalType": "address",
          "name": "from",
          "type": "address"
        },
        {
          "internalType": "address",
          "name": "to",
          "type": "address"
        },
        {
          "internalType": "uint256",
          "name": "amount",
          "type": "uint256"
        }
      ],
      "name": "transferFrom",
      "outputs": [
        {
          "internalType": "bool",
          "name": "",
          "type": "bool"
        }
      ],
      "stateMutability": "nonpayable",
      "type": "function"
    }
  ],
  "bytecode": "0x60806040523480156200001157600080fd5b5060405162001b9e38038062001b9e833981810160405281019062000037919062000492565b6040518060400160405280600681526020017f42617264656e00000000000000000000000000000000000000000000000000008152506040518060400160405280600381526020017f42444e00000000000000000000000000000000000000000000000000000000008152508160039080519060200190620000bb929190620003cb565b508060049080519060200190620000d4929190620003cb565b505050620000e933826200017c60201b60201c565b33600560006101000a81548173ffffffffffffffffffffffffffffffffffffffff021916908373ffffffffffffffffffffffffffffffffffffffff160217905550620001756040518060400160405280601e81526020017f4d79546f6b656e20436f6e747261637420726561647920746f20676f20210000815250620002f560201b620006dd1760201c565b506200073b565b600073ffffffffffffffffffffffffffffffffffffffff168273ffffffffffffffffffffffffffffffffffffffff161415620001ef576040517f08c379a0000000000000000000000000000000000000000000000000000000008152600401620001e6906200055b565b60405180910390fd5b62000203600083836200039860201b60201c565b8060026000828254620002179190620005b6565b92505081905550806000808473ffffffffffffffffffffffffffffffffffffffff1673ffffffffffffffffffffffffffffffffffffffff16815260200190815260200160002060008282546200026e9190620005b6565b925050819055508173ffffffffffffffffffffffffffffffffffffffff16600073ffffffffffffffffffffffffffffffffffffffff167fddf252ad1be2c89b69c2b068fc378daa952ba7f163c4a11628f55a4df523b3ef83604051620002d591906200057d565b60405180910390a3620002f1600083836200039d60201b60201c565b5050565b62000395816040516024016200030c919062000537565b6040516020818303038152906040527f41304fac000000000000000000000000000000000000000000000000000000007bffffffffffffffffffffffffffffffffffffffffffffffffffffffff19166020820180517bffffffffffffffffffffffffffffffffffffffffffffffffffffffff8381831617835250505050620003a260201b60201c565b50565b505050565b505050565b60008151905060006a636f6e736f6c652e6c6f679050602083016000808483855afa5050505050565b828054620003d99062000653565b90600052602060002090601f016020900481019282620003fd576000855562000449565b82601f106200041857805160ff191683800117855562000449565b8280016001018555821562000449579182015b82811115620004485782518255916020019190600101906200042b565b5b5090506200045891906200045c565b5090565b5b80821115620004775760008160009055506001016200045d565b5090565b6000815190506200048c8162000721565b92915050565b600060208284031215620004a557600080fd5b6000620004b5848285016200047b565b91505092915050565b6000620004cb826200059a565b620004d78185620005a5565b9350620004e98185602086016200061d565b620004f481620006e7565b840191505092915050565b60006200050e601f83620005a5565b91506200051b82620006f8565b602082019050919050565b620005318162000613565b82525050565b60006020820190508181036000830152620005538184620004be565b905092915050565b600060208201905081810360008301526200057681620004ff565b9050919050565b600060208201905062000594600083018462000526565b92915050565b600081519050919050565b600082825260208201905092915050565b6000620005c38262000613565b9150620005d08362000613565b9250827fffffffffffffffffffffffffffffffffffffffffffffffffffffffffffffffff0382111562000608576200060762000689565b5b828201905092915050565b6000819050919050565b60005b838110156200063d57808201518184015260208101905062000620565b838111156200064d576000848401525b50505050565b600060028204905060018216806200066c57607f821691505b60208210811415620006835762000682620006b8565b5b50919050565b7f4e487b7100000000000000000000000000000000000000000000000000000000600052601160045260246000fd5b7f4e487b7100000000000000000000000000000000000000000000000000000000600052602260045260246000fd5b6000601f19601f8301169050919050565b7f45524332303a206d696e7420746f20746865207a65726f206164647265737300600082015250565b6200072c8162000613565b81146200073857600080fd5b50565b611453806200074b6000396000f3fe608060405234801561001057600080fd5b50600436106100b45760003560e01c806370a082311161007157806370a08231146101a357806395d89b41146101d3578063a457c2d7146101f1578063a9059cbb14610221578063dd62ed3e14610251578063e4e103dc14610281576100b4565b806306fdde03146100b9578063095ea7b3146100d757806318160ddd1461010757806323b872dd14610125578063313ce567146101555780633950935114610173575b600080fd5b6100c161029d565b6040516100ce9190610f19565b60405180910390f35b6100f160048036038101906100ec9190610d67565b61032f565b6040516100fe9190610efe565b60405180910390f35b61010f610352565b60405161011c919061101b565b60405180910390f35b61013f600480360381019061013a9190610d18565b61035c565b60405161014c9190610efe565b60405180910390f35b61015d61038b565b60405161016a9190611036565b60405180910390f35b61018d60048036038101906101889190610d67565b610394565b60405161019a9190610efe565b60405180910390f35b6101bd60048036038101906101b89190610cb3565b61043e565b6040516101ca919061101b565b60405180910390f35b6101db610486565b6040516101e89190610f19565b60405180910390f35b61020b60048036038101906102069190610d67565b610518565b6040516102189190610efe565b60405180910390f35b61023b60048036038101906102369190610d67565b610602565b6040516102489190610efe565b60405180910390f35b61026b60048036038101906102669190610cdc565b610625565b604051610278919061101b565b60405180910390f35b61029b60048036038101906102969190610d67565b6106ac565b005b6060600380546102ac9061114b565b80601f01602080910402602001604051908101604052809291908181526020018280546102d89061114b565b80156103255780601f106102fa57610100808354040283529160200191610325565b820191906000526020600020905b81548152906001019060200180831161030857829003601f168201915b5050505050905090565b60008061033a610776565b905061034781858561077e565b600191505092915050565b6000600254905090565b600080610367610776565b9050610374858285610949565b61037f8585856109d5565b60019150509392505050565b60006012905090565b60008061039f610776565b9050610433818585600160008673ffffffffffffffffffffffffffffffffffffffff1673ffffffffffffffffffffffffffffffffffffffff16815260200190815260200160002060008973ffffffffffffffffffffffffffffffffffffffff1673ffffffffffffffffffffffffffffffffffffffff1681526020019081526020016000205461042e919061106d565b61077e565b600191505092915050565b60008060008373ffffffffffffffffffffffffffffffffffffffff1673ffffffffffffffffffffffffffffffffffffffff168152602001908152602001600020549050919050565b6060600480546104959061114b565b80601f01602080910402602001604051908101604052809291908181526020018280546104c19061114b565b801561050e5780601f106104e35761010080835404028352916020019161050e565b820191906000526020600020905b8154815290600101906020018083116104f157829003601f168201915b5050505050905090565b600080610523610776565b90506000600160008373ffffffffffffffffffffffffffffffffffffffff1673ffffffffffffffffffffffffffffffffffffffff16815260200190815260200160002060008673ffffffffffffffffffffffffffffffffffffffff1673ffffffffffffffffffffffffffffffffffffffff168152602001908152602001600020549050838110156105e9576040517f08c379a00000000000000000000000000000000000000000000000000000000081526004016105e090610ffb565b60405180910390fd5b6105f6828686840361077e565b60019250505092915050565b60008061060d610776565b905061061a8185856109d5565b600191505092915050565b6000600160008473ffffffffffffffffffffffffffffffffffffffff1673ffffffffffffffffffffffffffffffffffffffff16815260200190815260200160002060008373ffffffffffffffffffffffffffffffffffffffff1673ffffffffffffffffffffffffffffffffffffffff16815260200190815260200160002054905092915050565b6106d9600560009054906101000a900473ffffffffffffffffffffffffffffffffffffffff1683836109d5565b5050565b610773816040516024016106f19190610f19565b6040516020818303038152906040527f41304fac000000000000000000000000000000000000000000000000000000007bffffffffffffffffffffffffffffffffffffffffffffffffffffffff19166020820180517bffffffffffffffffffffffffffffffffffffffffffffffffffffffff8381831617835250505050610c56565b50565b600033905090565b600073ffffffffffffffffffffffffffffffffffffffff168373ffffffffffffffffffffffffffffffffffffffff1614156107ee576040517f08c379a00000000000000000000000000000000000000000000000000000000081526004016107e590610fdb565b60405180910390fd5b600073ffffffffffffffffffffffffffffffffffffffff168273ffffffffffffffffffffffffffffffffffffffff16141561085e576040517f08c379a000000000000000000000000000000000000000000000000000000000815260040161085590610f5b565b60405180910390fd5b80600160008573ffffffffffffffffffffffffffffffffffffffff1673ffffffffffffffffffffffffffffffffffffffff16815260200190815260200160002060008473ffffffffffffffffffffffffffffffffffffffff1673ffffffffffffffffffffffffffffffffffffffff168152602001908152602001600020819055508173ffffffffffffffffffffffffffffffffffffffff168373ffffffffffffffffffffffffffffffffffffffff167f8c5be1e5ebec7d5bd14f71427d1e84f3dd0314c0f7b2291e5b200ac8c7c3b9258360405161093c919061101b565b60405180910390a3505050565b60006109558484610625565b90507fffffffffffffffffffffffffffffffffffffffffffffffffffffffffffffffff81146109cf57818110156109c1576040517f08c379a00000000000000000000000000000000000000000000000000000000081526004016109b890610f7b565b60405180910390fd5b6109ce848484840361077e565b5b50505050565b600073ffffffffffffffffffffffffffffffffffffffff168373ffffffffffffffffffffffffffffffffffffffff161415610a45576040517f08c379a0000000000000000000000000000000000000000000000000000000008152600401610a3c90610fbb565b60405180910390fd5b600073ffffffffffffffffffffffffffffffffffffffff168273ffffffffffffffffffffffffffffffffffffffff161415610ab5576040517f08c379a0000000000000000000000000000000000000000000000000000000008152600401610aac90610f3b565b60405180910390fd5b610ac0838383610c7f565b60008060008573ffffffffffffffffffffffffffffffffffffffff1673ffffffffffffffffffffffffffffffffffffffff16815260200190815260200160002054905081811015610b46576040517f08c379a0000000000000000000000000000000000000000000000000000000008152600401610b3d90610f9b565b60405180910390fd5b8181036000808673ffffffffffffffffffffffffffffffffffffffff1673ffffffffffffffffffffffffffffffffffffffff16815260200190815260200160002081905550816000808573ffffffffffffffffffffffffffffffffffffffff1673ffffffffffffffffffffffffffffffffffffffff1681526020019081526020016000206000828254610bd9919061106d565b925050819055508273ffffffffffffffffffffffffffffffffffffffff168473ffffffffffffffffffffffffffffffffffffffff167fddf252ad1be2c89b69c2b068fc378daa952ba7f163c4a11628f55a4df523b3ef84604051610c3d919061101b565b60405180910390a3610c50848484610c84565b50505050565b60008151905060006a636f6e736f6c652e6c6f679050602083016000808483855afa5050505050565b505050565b505050565b600081359050610c98816113ef565b92915050565b600081359050610cad81611406565b92915050565b600060208284031215610cc557600080fd5b6000610cd384828501610c89565b91505092915050565b60008060408385031215610cef57600080fd5b6000610cfd85828601610c89565b9250506020610d0e85828601610c89565b9150509250929050565b600080600060608486031215610d2d57600080fd5b6000610d3b86828701610c89565b9350506020610d4c86828701610c89565b9250506040610d5d86828701610c9e565b9150509250925092565b60008060408385031215610d7a57600080fd5b6000610d8885828601610c89565b9250506020610d9985828601610c9e565b9150509250929050565b610dac816110d5565b82525050565b6000610dbd82611051565b610dc7818561105c565b9350610dd7818560208601611118565b610de0816111db565b840191505092915050565b6000610df860238361105c565b9150610e03826111ec565b604082019050919050565b6000610e1b60228361105c565b9150610e268261123b565b604082019050919050565b6000610e3e601d8361105c565b9150610e498261128a565b602082019050919050565b6000610e6160268361105c565b9150610e6c826112b3565b604082019050919050565b6000610e8460258361105c565b9150610e8f82611302565b604082019050919050565b6000610ea760248361105c565b9150610eb282611351565b604082019050919050565b6000610eca60258361105c565b9150610ed5826113a0565b604082019050919050565b610ee981611101565b82525050565b610ef88161110b565b82525050565b6000602082019050610f136000830184610da3565b92915050565b60006020820190508181036000830152610f338184610db2565b905092915050565b60006020820190508181036000830152610f5481610deb565b9050919050565b60006020820190508181036000830152610f7481610e0e565b9050919050565b60006020820190508181036000830152610f9481610e31565b9050919050565b60006020820190508181036000830152610fb481610e54565b9050919050565b60006020820190508181036000830152610fd481610e77565b9050919050565b60006020820190508181036000830152610ff481610e9a565b9050919050565b6000602082019050818103600083015261101481610ebd565b9050919050565b60006020820190506110306000830184610ee0565b92915050565b600060208201905061104b6000830184610eef565b92915050565b600081519050919050565b600082825260208201905092915050565b600061107882611101565b915061108383611101565b9250827fffffffffffffffffffffffffffffffffffffffffffffffffffffffffffffffff038211156110b8576110b761117d565b5b828201905092915050565b60006110ce826110e1565b9050919050565b60008115159050919050565b600073ffffffffffffffffffffffffffffffffffffffff82169050919050565b6000819050919050565b600060ff82169050919050565b60005b8381101561113657808201518184015260208101905061111b565b83811115611145576000848401525b50505050565b6000600282049050600182168061116357607f821691505b60208210811415611177576111766111ac565b5b50919050565b7f4e487b7100000000000000000000000000000000000000000000000000000000600052601160045260246000fd5b7f4e487b7100000000000000000000000000000000000000000000000000000000600052602260045260246000fd5b6000601f19601f8301169050919050565b7f45524332303a207472616e7366657220746f20746865207a65726f206164647260008201527f6573730000000000000000000000000000000000000000000000000000000000602082015250565b7f45524332303a20617070726f766520746f20746865207a65726f20616464726560008201527f7373000000000000000000000000000000000000000000000000000000000000602082015250565b7f45524332303a20696e73756666696369656e7420616c6c6f77616e6365000000600082015250565b7f45524332303a207472616e7366657220616d6f756e742065786365656473206260008201527f616c616e63650000000000000000000000000000000000000000000000000000602082015250565b7f45524332303a207472616e736665722066726f6d20746865207a65726f20616460008201527f6472657373000000000000000000000000000000000000000000000000000000602082015250565b7f45524332303a20617070726f76652066726f6d20746865207a65726f2061646460008201527f7265737300000000000000000000000000000000000000000000000000000000602082015250565b7f45524332303a2064656372656173656420616c6c6f77616e63652062656c6f7760008201527f207a65726f000000000000000000000000000000000000000000000000000000602082015250565b6113f8816110c3565b811461140357600080fd5b50565b61140f81611101565b811461141a57600080fd5b5056fea2646970667358221220da15228f4f303357bf366a44e9742775a0f7d9badbdd2c452d98e8c86303f53064736f6c63430008040033",
  "linkReferences": {},
  "deployedLinkReferences": {}
}