{
  "_format": "hh-sol-artifact-1",
  "contractName": "Web3Ressources",
  "sourceName": "contracts/Web3Ressources.sol",
  "abi": [
    {
      "inputs": [
        {
          "internalType": "address",
          "name": "_myTokenContractAddress",
          "type": "address"
        },
        {
          "internalType": "address",
          "name": "_myNFTContractAddress",
          "type": "address"
        }
      ],
      "stateMutability": "nonpayable",
      "type": "constructor"
    },
    {
      "anonymous": false,
      "inputs": [
        {
          "indexed": true,
          "internalType": "address",
          "name": "from",
          "type": "address"
        },
        {
          "indexed": false,
          "internalType": "uint256",
          "name": "timestamp",
          "type": "uint256"
        },
        {
          "indexed": false,
          "internalType": "string",
          "name": "link",
          "type": "string"
        },
        {
          "indexed": false,
          "internalType": "string",
          "name": "comment",
          "type": "string"
        }
      ],
      "name": "NewRessource",
      "type": "event"
    },
    {
      "anonymous": false,
      "inputs": [
        {
          "indexed": true,
          "internalType": "address",
          "name": "from",
          "type": "address"
        },
        {
          "indexed": false,
          "internalType": "uint256",
          "name": "timestamp",
          "type": "uint256"
        },
        {
          "indexed": false,
          "internalType": "string",
          "name": "link",
          "type": "string"
        },
        {
          "indexed": false,
          "internalType": "string",
          "name": "comment",
          "type": "string"
        },
        {
          "indexed": false,
          "internalType": "uint16",
          "name": "nbLike",
          "type": "uint16"
        }
      ],
      "name": "UpdateRessource",
      "type": "event"
    },
    {
      "inputs": [
        {
          "internalType": "string",
          "name": "_ressource",
          "type": "string"
        },
        {
          "internalType": "string",
          "name": "_comment",
          "type": "string"
        }
      ],
      "name": "addRessource",
      "outputs": [],
      "stateMutability": "nonpayable",
      "type": "function"
    },
    {
      "inputs": [],
      "name": "getRessources",
      "outputs": [
        {
          "components": [
            {
              "internalType": "address",
              "name": "creator",
              "type": "address"
            },
            {
              "internalType": "string",
              "name": "link",
              "type": "string"
            },
            {
              "internalType": "string",
              "name": "comment",
              "type": "string"
            },
            {
              "internalType": "uint256",
              "name": "timestamp",
              "type": "uint256"
            },
            {
              "internalType": "uint16",
              "name": "nbLike",
              "type": "uint16"
            }
          ],
          "internalType": "struct Web3Ressources.Ressource[]",
          "name": "",
          "type": "tuple[]"
        }
      ],
      "stateMutability": "view",
      "type": "function"
    },
    {
      "inputs": [
        {
          "internalType": "uint256",
          "name": "_ressourceId",
          "type": "uint256"
        }
      ],
      "name": "likeRessource",
      "outputs": [],
      "stateMutability": "nonpayable",
      "type": "function"
    },
    {
      "inputs": [
        {
          "internalType": "uint256",
          "name": "_ressourceId",
          "type": "uint256"
        }
      ],
      "name": "removeRessource",
      "outputs": [],
      "stateMutability": "nonpayable",
      "type": "function"
    },
    {
      "inputs": [
        {
          "internalType": "uint256",
          "name": "_ressourceId",
          "type": "uint256"
        },
        {
          "internalType": "string",
          "name": "_ressource",
          "type": "string"
        },
        {
          "internalType": "string",
          "name": "_comment",
          "type": "string"
        }
      ],
      "name": "updateRessource",
      "outputs": [],
      "stateMutability": "nonpayable",
      "type": "function"
    }
  ],
  "bytecode": "0x60806040523480156200001157600080fd5b5060405162002070380380620020708339818101604052810190620000379190620001d3565b81600160006101000a81548173ffffffffffffffffffffffffffffffffffffffff021916908373ffffffffffffffffffffffffffffffffffffffff16021790555080600260006101000a81548173ffffffffffffffffffffffffffffffffffffffff021916908373ffffffffffffffffffffffffffffffffffffffff160217905550620000e86040518060600160405280602a815260200162002046602a9139620000f060201b620010e51760201c565b50506200032a565b620001908160405160240162000107919062000255565b6040516020818303038152906040527f41304fac000000000000000000000000000000000000000000000000000000007bffffffffffffffffffffffffffffffffffffffffffffffffffffffff19166020820180517bffffffffffffffffffffffffffffffffffffffffffffffffffffffff83818316178352505050506200019360201b60201c565b50565b60008151905060006a636f6e736f6c652e6c6f679050602083016000808483855afa5050505050565b600081519050620001cd8162000310565b92915050565b60008060408385031215620001e757600080fd5b6000620001f785828601620001bc565b92505060206200020a85828601620001bc565b9150509250929050565b6000620002218262000279565b6200022d818562000284565b93506200023f818560208601620002c9565b6200024a81620002ff565b840191505092915050565b6000602082019050818103600083015262000271818462000214565b905092915050565b600081519050919050565b600082825260208201905092915050565b6000620002a282620002a9565b9050919050565b600073ffffffffffffffffffffffffffffffffffffffff82169050919050565b60005b83811015620002e9578082015181840152602081019050620002cc565b83811115620002f9576000848401525b50505050565b6000601f19601f8301169050919050565b6200031b8162000295565b81146200032757600080fd5b50565b611d0c806200033a6000396000f3fe608060405234801561001057600080fd5b50600436106100575760003560e01c8063271295de1461005c5780634489e5de14610078578063651fa6c9146100945780639c5f6aef146100b0578063bf1377f7146100ce575b600080fd5b61007660048036038101906100719190611394565b6100ea565b005b610092600480360381019061008d9190611429565b6103d9565b005b6100ae60048036038101906100a99190611400565b610640565b005b6100b8610b12565b6040516100c59190611761565b60405180910390f35b6100e860048036038101906100e39190611400565b610d15565b005b60006040518060a001604052803373ffffffffffffffffffffffffffffffffffffffff168152602001848152602001838152602001428152602001600061ffff16815250908060018154018082558091505060019003906000526020600020906005020160009091909190915060008201518160000160006101000a81548173ffffffffffffffffffffffffffffffffffffffff021916908373ffffffffffffffffffffffffffffffffffffffff16021790555060208201518160010190805190602001906101ba9291906111a7565b5060408201518160020190805190602001906101d79291906111a7565b506060820151816003015560808201518160040160006101000a81548161ffff021916908361ffff1602179055505050600360003373ffffffffffffffffffffffffffffffffffffffff1673ffffffffffffffffffffffffffffffffffffffff168152602001908152602001600020600081819054906101000a900461ffff168092919061026490611b24565b91906101000a81548161ffff021916908361ffff160217905550503373ffffffffffffffffffffffffffffffffffffffff167f55ff69af22e5ec4d8d10babe6fbb8534e6f29950719cfea9d32f2c7ab1da79a74284846040516102c9939291906117c5565b60405180910390a26000600a600360003373ffffffffffffffffffffffffffffffffffffffff1673ffffffffffffffffffffffffffffffffffffffff16815260200190815260200160002060009054906101000a900461ffff1661032d9190611b98565b61ffff1614156103d5576000670de0b6b3a76400009050600160009054906101000a900473ffffffffffffffffffffffffffffffffffffffff1673ffffffffffffffffffffffffffffffffffffffff1663e4e103dc33836040518363ffffffff1660e01b81526004016103a1929190611738565b600060405180830381600087803b1580156103bb57600080fd5b505af11580156103cf573d6000803e3d6000fd5b50505050505b5050565b823373ffffffffffffffffffffffffffffffffffffffff166000828154811061042b577f4e487b7100000000000000000000000000000000000000000000000000000000600052603260045260246000fd5b906000526020600020906005020160000160009054906101000a900473ffffffffffffffffffffffffffffffffffffffff1673ffffffffffffffffffffffffffffffffffffffff161461047d57600080fd5b82600085815481106104b8577f4e487b7100000000000000000000000000000000000000000000000000000000600052603260045260246000fd5b906000526020600020906005020160010190805190602001906104dc9291906111a7565b508160008581548110610518577f4e487b7100000000000000000000000000000000000000000000000000000000600052603260045260246000fd5b9060005260206000209060050201600201908051906020019061053c9291906111a7565b504260008581548110610578577f4e487b7100000000000000000000000000000000000000000000000000000000600052603260045260246000fd5b9060005260206000209060050201600301819055503373ffffffffffffffffffffffffffffffffffffffff167fb67e5c8d40aa0e23fd38a8d122f76cb440a6f68286fce6c586e953eff15688bc42858560008981548110610602577f4e487b7100000000000000000000000000000000000000000000000000000000600052603260045260246000fd5b906000526020600020906005020160040160009054906101000a900461ffff16604051610632949392919061180a565b60405180910390a250505050565b6000818154811061067a577f4e487b7100000000000000000000000000000000000000000000000000000000600052603260045260246000fd5b9060005260206000209060050201600401600081819054906101000a900461ffff16809291906106a990611b24565b91906101000a81548161ffff021916908361ffff1602179055505060046000808381548110610701577f4e487b7100000000000000000000000000000000000000000000000000000000600052603260045260246000fd5b906000526020600020906005020160000160009054906101000a900473ffffffffffffffffffffffffffffffffffffffff1673ffffffffffffffffffffffffffffffffffffffff1673ffffffffffffffffffffffffffffffffffffffff168152602001908152602001600020600081819054906101000a900461ffff168092919061078b90611b24565b91906101000a81548161ffff021916908361ffff16021790555050600a600460008084815481106107e5577f4e487b7100000000000000000000000000000000000000000000000000000000600052603260045260246000fd5b906000526020600020906005020160000160009054906101000a900473ffffffffffffffffffffffffffffffffffffffff1673ffffffffffffffffffffffffffffffffffffffff1673ffffffffffffffffffffffffffffffffffffffff16815260200190815260200160002060009054906101000a900461ffff1661ffff16141561096357600260009054906101000a900473ffffffffffffffffffffffffffffffffffffffff1673ffffffffffffffffffffffffffffffffffffffff1663541601a1600083815481106108e2577f4e487b7100000000000000000000000000000000000000000000000000000000600052603260045260246000fd5b906000526020600020906005020160000160009054906101000a900473ffffffffffffffffffffffffffffffffffffffff166040518263ffffffff1660e01b8152600401610930919061171d565b600060405180830381600087803b15801561094a57600080fd5b505af115801561095e573d6000803e3d6000fd5b505050505b6000818154811061099d577f4e487b7100000000000000000000000000000000000000000000000000000000600052603260045260246000fd5b906000526020600020906005020160000160009054906101000a900473ffffffffffffffffffffffffffffffffffffffff1673ffffffffffffffffffffffffffffffffffffffff167fb67e5c8d40aa0e23fd38a8d122f76cb440a6f68286fce6c586e953eff15688bc4260008481548110610a41577f4e487b7100000000000000000000000000000000000000000000000000000000600052603260045260246000fd5b906000526020600020906005020160010160008581548110610a8c577f4e487b7100000000000000000000000000000000000000000000000000000000600052603260045260246000fd5b906000526020600020906005020160020160008681548110610ad7577f4e487b7100000000000000000000000000000000000000000000000000000000600052603260045260246000fd5b906000526020600020906005020160040160009054906101000a900461ffff16604051610b07949392919061185d565b60405180910390a250565b60606000805480602002602001604051908101604052809291908181526020016000905b82821015610d0c57838290600052602060002090600502016040518060a00160405290816000820160009054906101000a900473ffffffffffffffffffffffffffffffffffffffff1673ffffffffffffffffffffffffffffffffffffffff1673ffffffffffffffffffffffffffffffffffffffff168152602001600182018054610bbf90611ac1565b80601f0160208091040260200160405190810160405280929190818152602001828054610beb90611ac1565b8015610c385780601f10610c0d57610100808354040283529160200191610c38565b820191906000526020600020905b815481529060010190602001808311610c1b57829003601f168201915b50505050508152602001600282018054610c5190611ac1565b80601f0160208091040260200160405190810160405280929190818152602001828054610c7d90611ac1565b8015610cca5780601f10610c9f57610100808354040283529160200191610cca565b820191906000526020600020905b815481529060010190602001808311610cad57829003601f168201915b50505050508152602001600382015481526020016004820160009054906101000a900461ffff1661ffff1661ffff168152505081526020019060010190610b36565b50505050905090565b803373ffffffffffffffffffffffffffffffffffffffff1660008281548110610d67577f4e487b7100000000000000000000000000000000000000000000000000000000600052603260045260246000fd5b906000526020600020906005020160000160009054906101000a900473ffffffffffffffffffffffffffffffffffffffff1673ffffffffffffffffffffffffffffffffffffffff1614610db957600080fd5b6000805490508210610e00576040517f08c379a0000000000000000000000000000000000000000000000000000000008152600401610df7906117a5565b60405180910390fd5b600360003373ffffffffffffffffffffffffffffffffffffffff1673ffffffffffffffffffffffffffffffffffffffff168152602001908152602001600020600081819054906101000a900461ffff1680929190610e5d90611a97565b91906101000a81548161ffff021916908361ffff1602179055505060008290505b6001600080549050610e9091906119d7565b81101561102b576000600182610ea69190611981565b81548110610edd577f4e487b7100000000000000000000000000000000000000000000000000000000600052603260045260246000fd5b906000526020600020906005020160008281548110610f25577f4e487b7100000000000000000000000000000000000000000000000000000000600052603260045260246000fd5b90600052602060002090600502016000820160009054906101000a900473ffffffffffffffffffffffffffffffffffffffff168160000160006101000a81548173ffffffffffffffffffffffffffffffffffffffff021916908373ffffffffffffffffffffffffffffffffffffffff1602179055506001820181600101908054610fae90611ac1565b610fb992919061122d565b506002820181600201908054610fce90611ac1565b610fd992919061122d565b50600382015481600301556004820160009054906101000a900461ffff168160040160006101000a81548161ffff021916908361ffff160217905550905050808061102390611b4f565b915050610e7e565b506000805480611064577f4e487b7100000000000000000000000000000000000000000000000000000000600052603160045260246000fd5b6001900381819060005260206000209060050201600080820160006101000a81549073ffffffffffffffffffffffffffffffffffffffff02191690556001820160006110b091906112ba565b6002820160006110c091906112ba565b60038201600090556004820160006101000a81549061ffff0219169055505090555050565b61117b816040516024016110f99190611783565b6040516020818303038152906040527f41304fac000000000000000000000000000000000000000000000000000000007bffffffffffffffffffffffffffffffffffffffffffffffffffffffff19166020820180517bffffffffffffffffffffffffffffffffffffffffffffffffffffffff838183161783525050505061117e565b50565b60008151905060006a636f6e736f6c652e6c6f679050602083016000808483855afa5050505050565b8280546111b390611ac1565b90600052602060002090601f0160209004810192826111d5576000855561121c565b82601f106111ee57805160ff191683800117855561121c565b8280016001018555821561121c579182015b8281111561121b578251825591602001919060010190611200565b5b50905061122991906112fa565b5090565b82805461123990611ac1565b90600052602060002090601f01602090048101928261125b57600085556112a9565b82601f1061126c57805485556112a9565b828001600101855582156112a957600052602060002091601f016020900482015b828111156112a857825482559160010191906001019061128d565b5b5090506112b691906112fa565b5090565b5080546112c690611ac1565b6000825580601f106112d857506112f7565b601f0160209004906000526020600020908101906112f691906112fa565b5b50565b5b808211156113135760008160009055506001016112fb565b5090565b600061132a611325846118d5565b6118b0565b90508281526020810184848401111561134257600080fd5b61134d848285611a55565b509392505050565b600082601f83011261136657600080fd5b8135611376848260208601611317565b91505092915050565b60008135905061138e81611cbf565b92915050565b600080604083850312156113a757600080fd5b600083013567ffffffffffffffff8111156113c157600080fd5b6113cd85828601611355565b925050602083013567ffffffffffffffff8111156113ea57600080fd5b6113f685828601611355565b9150509250929050565b60006020828403121561141257600080fd5b60006114208482850161137f565b91505092915050565b60008060006060848603121561143e57600080fd5b600061144c8682870161137f565b935050602084013567ffffffffffffffff81111561146957600080fd5b61147586828701611355565b925050604084013567ffffffffffffffff81111561149257600080fd5b61149e86828701611355565b9150509250925092565b60006114b48383611664565b905092915050565b6114c581611a0b565b82525050565b6114d481611a0b565b82525050565b60006114e58261192b565b6114ef818561194e565b93508360208202850161150185611906565b8060005b8581101561153d578484038952815161151e85826114a8565b945061152983611941565b925060208a01995050600181019050611505565b50829750879550505050505092915050565b600061155a82611936565b611564818561195f565b9350611574818560208601611a64565b61157d81611c85565b840191505092915050565b600061159382611936565b61159d8185611970565b93506115ad818560208601611a64565b6115b681611c85565b840191505092915050565b600081546115ce81611ac1565b6115d88186611970565b945060018216600081146115f3576001811461160557611638565b60ff1983168652602086019350611638565b61160e85611916565b60005b8381101561163057815481890152600182019150602081019050611611565b808801955050505b50505092915050565b600061164e601283611970565b915061165982611c96565b602082019050919050565b600060a08301600083015161167c60008601826114bc565b5060208301518482036020860152611694828261154f565b915050604083015184820360408601526116ae828261154f565b91505060608301516116c360608601826116ff565b5060808301516116d660808601826116e1565b508091505092915050565b6116ea81611a1d565b82525050565b6116f981611a1d565b82525050565b61170881611a4b565b82525050565b61171781611a4b565b82525050565b600060208201905061173260008301846114cb565b92915050565b600060408201905061174d60008301856114cb565b61175a602083018461170e565b9392505050565b6000602082019050818103600083015261177b81846114da565b905092915050565b6000602082019050818103600083015261179d8184611588565b905092915050565b600060208201905081810360008301526117be81611641565b9050919050565b60006060820190506117da600083018661170e565b81810360208301526117ec8185611588565b905081810360408301526118008184611588565b9050949350505050565b600060808201905061181f600083018761170e565b81810360208301526118318186611588565b905081810360408301526118458185611588565b905061185460608301846116f0565b95945050505050565b6000608082019050611872600083018761170e565b818103602083015261188481866115c1565b9050818103604083015261189881856115c1565b90506118a760608301846116f0565b95945050505050565b60006118ba6118cb565b90506118c68282611af3565b919050565b6000604051905090565b600067ffffffffffffffff8211156118f0576118ef611c56565b5b6118f982611c85565b9050602081019050919050565b6000819050602082019050919050565b60008190508160005260206000209050919050565b600081519050919050565b600081519050919050565b6000602082019050919050565b600082825260208201905092915050565b600082825260208201905092915050565b600082825260208201905092915050565b600061198c82611a4b565b915061199783611a4b565b9250827fffffffffffffffffffffffffffffffffffffffffffffffffffffffffffffffff038211156119cc576119cb611bc9565b5b828201905092915050565b60006119e282611a4b565b91506119ed83611a4b565b925082821015611a00576119ff611bc9565b5b828203905092915050565b6000611a1682611a2b565b9050919050565b600061ffff82169050919050565b600073ffffffffffffffffffffffffffffffffffffffff82169050919050565b6000819050919050565b82818337600083830152505050565b60005b83811015611a82578082015181840152602081019050611a67565b83811115611a91576000848401525b50505050565b6000611aa282611a1d565b91506000821415611ab657611ab5611bc9565b5b600182039050919050565b60006002820490506001821680611ad957607f821691505b60208210811415611aed57611aec611c27565b5b50919050565b611afc82611c85565b810181811067ffffffffffffffff82111715611b1b57611b1a611c56565b5b80604052505050565b6000611b2f82611a1d565b915061ffff821415611b4457611b43611bc9565b5b600182019050919050565b6000611b5a82611a4b565b91507fffffffffffffffffffffffffffffffffffffffffffffffffffffffffffffffff821415611b8d57611b8c611bc9565b5b600182019050919050565b6000611ba382611a1d565b9150611bae83611a1d565b925082611bbe57611bbd611bf8565b5b828206905092915050565b7f4e487b7100000000000000000000000000000000000000000000000000000000600052601160045260246000fd5b7f4e487b7100000000000000000000000000000000000000000000000000000000600052601260045260246000fd5b7f4e487b7100000000000000000000000000000000000000000000000000000000600052602260045260246000fd5b7f4e487b7100000000000000000000000000000000000000000000000000000000600052604160045260246000fd5b6000601f19601f8301169050919050565b7f696e646578206f7574206f6620626f756e640000000000000000000000000000600082015250565b611cc881611a4b565b8114611cd357600080fd5b5056fea2646970667358221220096f1f55947663aacf1ed21652d20db5a9a98c601d6424bdb81a5b2fed24da4e64736f6c63430008040033536d61727420436f6e74726163742057656233526573736f7572636520726561647920746f20676f2021",
  "linkReferences": {},
  "deployedLinkReferences": {}
}